:03000000020800F3
:0C080000787FE4F6D8FD75810A020847F5
:0A09D2003F065B4F666D7D077F6FE7
:0309DC00010A010C
:10096A007F057E007D7B7C00ED1D70011CED4C70C7
:0A097A00F7EF1F70011EEF4E70EA48
:010984002250
:1009B600758C3C758AB0758901D2AFD28CD2A922CA
:03000B000209C621
:0C09C600758C3C758AB0758901050832FB
:10088C00C293E508B41405050AE4F508E50A14B4A6
:10089C000900505E9008AE75F003A4C58325F0C521
:1008AC0083730208C90208CE0208D30208D80208D2
:1008BC00DD0208E20208E70208EC0208FB75B0FE54
:1008CC00802175B0FD801C75B0FB801775B0F7806A
:1008DC001275B0EF800D75B0DF800875B0BF800366
:1008EC0075B07F75807FE50A9009D293F5A02275CB
:0308FC000A0122CC
:1008FF00D293E508B41405150AE4F508E50AB4091E
:10090F00005057900919F828287302096602093414
:10091F0002093902093E02094302094802094D0240
:10092F00095202095775B0FE802175B0FD801C7504
:10093F00B0FB801775B0F7801275B0EF800D75B0F2
:10094F00DF800875B0BF800375B07F75807FE50AC3
:0B095F009009D293F5A022750A08222F
:1009850020900912096A2090037509012091091226
:09099500096A2091037509022290
:10099E001209B6120985E509B4010312088CE5099E
:0809AE00B402F01208FF80EB17
:10080C0002099EE493A3F8E493A34003F68001F25B
:10081C0008DFF48029E493A3F85407240CC8C333ED
:10082C00C4540F4420C8834004F456800146F6DFBC
:10083C00E4800B01020408102040809009DCE47E67
:10084C00019360BCA3FF543F30E509541FFEE493B1
:10085C00A360010ECF54C025E060A840B8E493A378
:10086C00FAE493A3F8E493A3C8C582C8CAC583CAA3
:10087C00F0A3C8C582C8CAC583CADFE9DEE780BE5B
:0109DF000017
:00000001FF
